{
  "_format": "hh-sol-artifact-1",
  "contractName": "RealEstate",
  "sourceName": "contracts/RealEstate.sol",
  "abi": [
    {
      "anonymous": false,
      "inputs": [
        {
          "indexed": true,
          "internalType": "uint256",
          "name": "id",
          "type": "uint256"
        },
        {
          "indexed": true,
          "internalType": "address",
          "name": "owner",
          "type": "address"
        },
        {
          "indexed": false,
          "internalType": "uint256",
          "name": "price",
          "type": "uint256"
        }
      ],
      "name": "PropertyListed",
      "type": "event"
    },
    {
      "anonymous": false,
      "inputs": [
        {
          "indexed": true,
          "internalType": "uint256",
          "name": "id",
          "type": "uint256"
        },
        {
          "indexed": true,
          "internalType": "address",
          "name": "oldOwner",
          "type": "address"
        },
        {
          "indexed": true,
          "internalType": "address",
          "name": "newOwner",
          "type": "address"
        },
        {
          "indexed": false,
          "internalType": "uint256",
          "name": "price",
          "type": "uint256"
        }
      ],
      "name": "PropertyResold",
      "type": "event"
    },
    {
      "anonymous": false,
      "inputs": [
        {
          "indexed": true,
          "internalType": "uint256",
          "name": "id",
          "type": "uint256"
        },
        {
          "indexed": true,
          "internalType": "address",
          "name": "oldOwner",
          "type": "address"
        },
        {
          "indexed": true,
          "internalType": "address",
          "name": "newOwner",
          "type": "address"
        },
        {
          "indexed": false,
          "internalType": "uint256",
          "name": "price",
          "type": "uint256"
        }
      ],
      "name": "PropertySold",
      "type": "event"
    },
    {
      "anonymous": false,
      "inputs": [
        {
          "indexed": true,
          "internalType": "uint256",
          "name": "productId",
          "type": "uint256"
        },
        {
          "indexed": true,
          "internalType": "address",
          "name": "reviewer",
          "type": "address"
        },
        {
          "indexed": false,
          "internalType": "uint8",
          "name": "rating",
          "type": "uint8"
        },
        {
          "indexed": false,
          "internalType": "string",
          "name": "comment",
          "type": "string"
        }
      ],
      "name": "ReviewAdded",
      "type": "event"
    },
    {
      "anonymous": false,
      "inputs": [
        {
          "indexed": true,
          "internalType": "uint256",
          "name": "productId",
          "type": "uint256"
        },
        {
          "indexed": true,
          "internalType": "uint256",
          "name": "reviewIndex",
          "type": "uint256"
        },
        {
          "indexed": true,
          "internalType": "address",
          "name": "liker",
          "type": "address"
        },
        {
          "indexed": false,
          "internalType": "uint256",
          "name": "likes",
          "type": "uint256"
        }
      ],
      "name": "ReviewLiked",
      "type": "event"
    },
    {
      "inputs": [
        {
          "internalType": "uint256",
          "name": "productId",
          "type": "uint256"
        },
        {
          "internalType": "uint8",
          "name": "rating",
          "type": "uint8"
        },
        {
          "internalType": "string",
          "name": "comment",
          "type": "string"
        },
        {
          "internalType": "address",
          "name": "user",
          "type": "address"
        }
      ],
      "name": "addReview",
      "outputs": [],
      "stateMutability": "nonpayable",
      "type": "function"
    },
    {
      "inputs": [
        {
          "internalType": "uint256",
          "name": "id",
          "type": "uint256"
        },
        {
          "internalType": "address",
          "name": "buyer",
          "type": "address"
        }
      ],
      "name": "buyProperty",
      "outputs": [],
      "stateMutability": "payable",
      "type": "function"
    },
    {
      "inputs": [],
      "name": "getAllProperties",
      "outputs": [
        {
          "components": [
            {
              "internalType": "uint256",
              "name": "productID",
              "type": "uint256"
            },
            {
              "internalType": "address",
              "name": "owner",
              "type": "address"
            },
            {
              "internalType": "uint256",
              "name": "price",
              "type": "uint256"
            },
            {
              "internalType": "string",
              "name": "propertyTitle",
              "type": "string"
            },
            {
              "internalType": "string",
              "name": "category",
              "type": "string"
            },
            {
              "internalType": "string",
              "name": "images",
              "type": "string"
            },
            {
              "internalType": "string",
              "name": "propertyAddress",
              "type": "string"
            },
            {
              "internalType": "string",
              "name": "description",
              "type": "string"
            },
            {
              "internalType": "address[]",
              "name": "reviewers",
              "type": "address[]"
            },
            {
              "internalType": "string[]",
              "name": "reviews",
              "type": "string[]"
            }
          ],
          "internalType": "struct RealEstate.Property[]",
          "name": "",
          "type": "tuple[]"
        }
      ],
      "stateMutability": "view",
      "type": "function"
    },
    {
      "inputs": [],
      "name": "getHighestRatedProduct",
      "outputs": [
        {
          "internalType": "uint256",
          "name": "",
          "type": "uint256"
        }
      ],
      "stateMutability": "view",
      "type": "function"
    },
    {
      "inputs": [],
      "name": "getListingPrice",
      "outputs": [
        {
          "internalType": "uint256",
          "name": "",
          "type": "uint256"
        }
      ],
      "stateMutability": "view",
      "type": "function"
    },
    {
      "inputs": [
        {
          "internalType": "uint256",
          "name": "productId",
          "type": "uint256"
        }
      ],
      "name": "getProductReviews",
      "outputs": [
        {
          "components": [
            {
              "internalType": "address",
              "name": "reviewer",
              "type": "address"
            },
            {
              "internalType": "uint256",
              "name": "productId",
              "type": "uint256"
            },
            {
              "internalType": "uint8",
              "name": "rating",
              "type": "uint8"
            },
            {
              "internalType": "string",
              "name": "comment",
              "type": "string"
            },
            {
              "internalType": "uint256",
              "name": "likes",
              "type": "uint256"
            },
            {
              "internalType": "uint256",
              "name": "reviewIndex",
              "type": "uint256"
            }
          ],
          "internalType": "struct RealEstate.Review[]",
          "name": "",
          "type": "tuple[]"
        }
      ],
      "stateMutability": "view",
      "type": "function"
    },
    {
      "inputs": [
        {
          "internalType": "uint256",
          "name": "id",
          "type": "uint256"
        }
      ],
      "name": "getProperty",
      "outputs": [
        {
          "internalType": "uint256",
          "name": "",
          "type": "uint256"
        },
        {
          "internalType": "address",
          "name": "",
          "type": "address"
        },
        {
          "internalType": "uint256",
          "name": "",
          "type": "uint256"
        },
        {
          "internalType": "string",
          "name": "",
          "type": "string"
        },
        {
          "internalType": "string",
          "name": "",
          "type": "string"
        },
        {
          "internalType": "string",
          "name": "",
          "type": "string"
        },
        {
          "internalType": "string",
          "name": "",
          "type": "string"
        },
        {
          "internalType": "string",
          "name": "",
          "type": "string"
        },
        {
          "internalType": "address[]",
          "name": "",
          "type": "address[]"
        },
        {
          "internalType": "string[]",
          "name": "",
          "type": "string[]"
        }
      ],
      "stateMutability": "view",
      "type": "function"
    },
    {
      "inputs": [
        {
          "internalType": "address",
          "name": "user",
          "type": "address"
        }
      ],
      "name": "getUserProperties",
      "outputs": [
        {
          "components": [
            {
              "internalType": "uint256",
              "name": "productID",
              "type": "uint256"
            },
            {
              "internalType": "address",
              "name": "owner",
              "type": "address"
            },
            {
              "internalType": "uint256",
              "name": "price",
              "type": "uint256"
            },
            {
              "internalType": "string",
              "name": "propertyTitle",
              "type": "string"
            },
            {
              "internalType": "string",
              "name": "category",
              "type": "string"
            },
            {
              "internalType": "string",
              "name": "images",
              "type": "string"
            },
            {
              "internalType": "string",
              "name": "propertyAddress",
              "type": "string"
            },
            {
              "internalType": "string",
              "name": "description",
              "type": "string"
            },
            {
              "internalType": "address[]",
              "name": "reviewers",
              "type": "address[]"
            },
            {
              "internalType": "string[]",
              "name": "reviews",
              "type": "string[]"
            }
          ],
          "internalType": "struct RealEstate.Property[]",
          "name": "",
          "type": "tuple[]"
        }
      ],
      "stateMutability": "view",
      "type": "function"
    },
    {
      "inputs": [
        {
          "internalType": "address",
          "name": "user",
          "type": "address"
        }
      ],
      "name": "getUserReviews",
      "outputs": [
        {
          "components": [
            {
              "internalType": "address",
              "name": "reviewer",
              "type": "address"
            },
            {
              "internalType": "uint256",
              "name": "productId",
              "type": "uint256"
            },
            {
              "internalType": "uint8",
              "name": "rating",
              "type": "uint8"
            },
            {
              "internalType": "string",
              "name": "comment",
              "type": "string"
            },
            {
              "internalType": "uint256",
              "name": "likes",
              "type": "uint256"
            },
            {
              "internalType": "uint256",
              "name": "reviewIndex",
              "type": "uint256"
            }
          ],
          "internalType": "struct RealEstate.Review[]",
          "name": "",
          "type": "tuple[]"
        }
      ],
      "stateMutability": "view",
      "type": "function"
    },
    {
      "inputs": [
        {
          "internalType": "uint256",
          "name": "productId",
          "type": "uint256"
        },
        {
          "internalType": "uint256",
          "name": "reviewIndex",
          "type": "uint256"
        },
        {
          "internalType": "address",
          "name": "user",
          "type": "address"
        }
      ],
      "name": "likeReview",
      "outputs": [],
      "stateMutability": "nonpayable",
      "type": "function"
    },
    {
      "inputs": [
        {
          "internalType": "address",
          "name": "owner",
          "type": "address"
        },
        {
          "internalType": "uint256",
          "name": "price",
          "type": "uint256"
        },
        {
          "internalType": "string",
          "name": "_propertyTitle",
          "type": "string"
        },
        {
          "internalType": "string",
          "name": "_category",
          "type": "string"
        },
        {
          "internalType": "string",
          "name": "_images",
          "type": "string"
        },
        {
          "internalType": "string",
          "name": "_propertyAddress",
          "type": "string"
        },
        {
          "internalType": "string",
          "name": "_description",
          "type": "string"
        }
      ],
      "name": "listProperty",
      "outputs": [
        {
          "internalType": "uint256",
          "name": "",
          "type": "uint256"
        },
        {
          "internalType": "string",
          "name": "",
          "type": "string"
        },
        {
          "internalType": "string",
          "name": "",
          "type": "string"
        },
        {
          "internalType": "string",
          "name": "",
          "type": "string"
        },
        {
          "internalType": "string",
          "name": "",
          "type": "string"
        }
      ],
      "stateMutability": "nonpayable",
      "type": "function"
    },
    {
      "inputs": [],
      "name": "listingPrice",
      "outputs": [
        {
          "internalType": "uint256",
          "name": "",
          "type": "uint256"
        }
      ],
      "stateMutability": "view",
      "type": "function"
    },
    {
      "inputs": [],
      "name": "propertyIndex",
      "outputs": [
        {
          "internalType": "uint256",
          "name": "",
          "type": "uint256"
        }
      ],
      "stateMutability": "view",
      "type": "function"
    },
    {
      "inputs": [],
      "name": "reviewsCounter",
      "outputs": [
        {
          "internalType": "uint256",
          "name": "",
          "type": "uint256"
        }
      ],
      "stateMutability": "view",
      "type": "function"
    },
    {
      "inputs": [
        {
          "internalType": "uint256",
          "name": "_listingPrice",
          "type": "uint256"
        },
        {
          "internalType": "address",
          "name": "owner",
          "type": "address"
        }
      ],
      "name": "updateListingPrice",
      "outputs": [],
      "stateMutability": "payable",
      "type": "function"
    },
    {
      "inputs": [
        {
          "internalType": "address",
          "name": "owner",
          "type": "address"
        },
        {
          "internalType": "uint256",
          "name": "productId",
          "type": "uint256"
        },
        {
          "internalType": "uint256",
          "name": "price",
          "type": "uint256"
        }
      ],
      "name": "updatePrice",
      "outputs": [
        {
          "internalType": "string",
          "name": "",
          "type": "string"
        }
      ],
      "stateMutability": "nonpayable",
      "type": "function"
    },
    {
      "inputs": [
        {
          "internalType": "address",
          "name": "owner",
          "type": "address"
        },
        {
          "internalType": "uint256",
          "name": "productId",
          "type": "uint256"
        },
        {
          "internalType": "string",
          "name": "_propertyTitle",
          "type": "string"
        },
        {
          "internalType": "string",
          "name": "_category",
          "type": "string"
        },
        {
          "internalType": "string",
          "name": "_images",
          "type": "string"
        },
        {
          "internalType": "string",
          "name": "_propertyAddress",
          "type": "string"
        },
        {
          "internalType": "string",
          "name": "_description",
          "type": "string"
        }
      ],
      "name": "updateProperty",
      "outputs": [
        {
          "internalType": "uint256",
          "name": "",
          "type": "uint256"
        },
        {
          "internalType": "string",
          "name": "",
          "type": "string"
        },
        {
          "internalType": "string",
          "name": "",
          "type": "string"
        },
        {
          "internalType": "string",
          "name": "",
          "type": "string"
        },
        {
          "internalType": "string",
          "name": "",
          "type": "string"
        },
        {
          "internalType": "string",
          "name": "",
          "type": "string"
        }
      ],
      "stateMutability": "nonpayable",
      "type": "function"
    }
  ],
  "bytecode": "0x6080604052600080546001600160a01b03191673b309098bcb51e5c687a16fa41bd6055f47c9ebb01790556658d15e1762800060015534801561004157600080fd5b50612b8d806100516000396000f3fe60806040526004361061010e5760003560e01c806380cad5a6116100a5578063c78f19f911610074578063e2fc6b9511610059578063e2fc6b95146102ec578063e57d6fb71461030c578063f56720b51461033957600080fd5b8063c78f19f9146102b6578063dc035e6d146102cc57600080fd5b806380cad5a614610263578063844ce562146102785780639e92a6941461028e578063a3007b1f146102a157600080fd5b80633b3bfa15116100e15780633b3bfa15146101cb5780633d51402c146101fd57806346a4237b14610212578063707893081461023257600080fd5b8063060a3e611461011357806312e855851461014957806318d0e8b21461016857806332665ffb14610195575b600080fd5b34801561011f57600080fd5b5061013361012e36600461227c565b61034f565b6040516101409190612387565b60405180910390f35b34801561015557600080fd5b506001545b604051908152602001610140565b34801561017457600080fd5b5061018861018336600461227c565b610969565b60405161014091906124c4565b3480156101a157600080fd5b506101b56101b0366004612562565b610c5d565b6040516101409a999897969594939291906125d0565b3480156101d757600080fd5b506101eb6101e6366004612756565b61113e565b60405161014096959493929190612842565b34801561020957600080fd5b5061013361123e565b34801561021e57600080fd5b5061018861022d366004612562565b6117a9565b34801561023e57600080fd5b5061025261024d366004612756565b6118ef565b6040516101409594939291906128b6565b610276610271366004612915565b611a7d565b005b34801561028457600080fd5b5061015a60075481565b61027661029c366004612915565b611b86565b3480156102ad57600080fd5b5061015a611cc1565b3480156102c257600080fd5b5061015a60015481565b3480156102d857600080fd5b506102766102e7366004612941565b611d48565b3480156102f857600080fd5b50610276610307366004612976565b611de1565b34801561031857600080fd5b5061032c610327366004612a1c565b6120a0565b6040516101409190612a4f565b34801561034557600080fd5b5061015a60035481565b600354606090600080805b838110156103be576001600160a01b0386166002600061037b846001612a78565b81526020810191909152604001600020600101546001600160a01b031614156103ac576103a9600184612a78565b92505b806103b681612a90565b91505061035a565b5060008267ffffffffffffffff8111156103da576103da6126b3565b60405190808252806020026020018201604052801561046a57816020015b6104576040518061014001604052806000815260200160006001600160a01b0316815260200160008152602001606081526020016060815260200160608152602001606081526020016060815260200160608152602001606081525090565b8152602001906001900390816103f85790505b50905060005b8481101561095f576001600160a01b03871660026000610491846001612a78565b81526020810191909152604001600020600101546001600160a01b0316141561094d5760006104c1826001612a78565b6000818152600260208181526040928390208351610140810185528154815260018201546001600160a01b031692810192909252918201549281019290925260038101805493945090928391606084019161051b90612aab565b80601f016020809104026020016040519081016040528092919081815260200182805461054790612aab565b80156105945780601f1061056957610100808354040283529160200191610594565b820191906000526020600020905b81548152906001019060200180831161057757829003601f168201915b505050505081526020016004820180546105ad90612aab565b80601f01602080910402602001604051908101604052809291908181526020018280546105d990612aab565b80156106265780601f106105fb57610100808354040283529160200191610626565b820191906000526020600020905b81548152906001019060200180831161060957829003601f168201915b5050505050815260200160058201805461063f90612aab565b80601f016020809104026020016040519081016040528092919081815260200182805461066b90612aab565b80156106b85780601f1061068d576101008083540402835291602001916106b8565b820191906000526020600020905b81548152906001019060200180831161069b57829003601f168201915b505050505081526020016006820180546106d190612aab565b80601f01602080910402602001604051908101604052809291908181526020018280546106fd90612aab565b801561074a5780601f1061071f5761010080835404028352916020019161074a565b820191906000526020600020905b81548152906001019060200180831161072d57829003601f168201915b5050505050815260200160078201805461076390612aab565b80601f016020809104026020016040519081016040528092919081815260200182805461078f90612aab565b80156107dc5780601f106107b1576101008083540402835291602001916107dc565b820191906000526020600020905b8154815290600101906020018083116107bf57829003601f168201915b505050505081526020016008820180548060200260200160405190810160405280929190818152602001828054801561083e57602002820191906000526020600020905b81546001600160a01b03168152600190910190602001808311610820575b5050505050815260200160098201805480602002602001604051908101604052809291908181526020016000905b8282101561091857838290600052602060002001805461088b90612aab565b80601f01602080910402602001604051908101604052809291908181526020018280546108b790612aab565b80156109045780601f106108d957610100808354040283529160200191610904565b820191906000526020600020905b8154815290600101906020018083116108e757829003601f168201915b50505050508152602001906001019061086c565b505050508152505084868151811061093257610932612ae6565b6020908102919091010152610948600186612a78565b945050505b8061095781612a90565b915050610470565b5095945050505050565b6001600160a01b0381166000908152600560205260408120546060918167ffffffffffffffff81111561099e5761099e6126b3565b604051908082528060200260200182016040528015610a1457816020015b610a016040518060c0016040528060006001600160a01b0316815260200160008152602001600060ff1681526020016060815260200160008152602001600081525090565b8152602001906001900390816109bc5790505b50905060005b6001600160a01b038516600090815260056020526040902054811015610c55576001600160a01b0385166000908152600560205260408120805483908110610a6457610a64612ae6565b90600052602060002001549050600060046000838152602001908152602001600020805480602002602001604051908101604052809291908181526020016000905b82821015610bac5760008481526020908190206040805160c0810182526006860290920180546001600160a01b03168352600181015493830193909352600283015460ff1690820152600382018054919291606084019190610b0790612aab565b80601f0160208091040260200160405190810160405280929190818152602001828054610b3390612aab565b8015610b805780601f10610b5557610100808354040283529160200191610b80565b820191906000526020600020905b815481529060010190602001808311610b6357829003601f168201915b505050505081526020016004820154815260200160058201548152505081526020019060010190610aa6565b50505050905060005b8151811015610c3f57876001600160a01b0316828281518110610bda57610bda612ae6565b6020026020010151600001516001600160a01b03161415610c2d57818181518110610c0757610c07612ae6565b6020026020010151858581518110610c2157610c21612ae6565b60200260200101819052505b80610c3781612a90565b915050610bb5565b5050508080610c4d90612a90565b915050610a1a565b509392505050565b600080600060608060608060608060606000600260008d815260200190815260200160002060405180610140016040529081600082015481526020016001820160009054906101000a90046001600160a01b03166001600160a01b03166001600160a01b0316815260200160028201548152602001600382018054610ce190612aab565b80601f0160208091040260200160405190810160405280929190818152602001828054610d0d90612aab565b8015610d5a5780601f10610d2f57610100808354040283529160200191610d5a565b820191906000526020600020905b815481529060010190602001808311610d3d57829003601f168201915b50505050508152602001600482018054610d7390612aab565b80601f0160208091040260200160405190810160405280929190818152602001828054610d9f90612aab565b8015610dec5780601f10610dc157610100808354040283529160200191610dec565b820191906000526020600020905b815481529060010190602001808311610dcf57829003601f168201915b50505050508152602001600582018054610e0590612aab565b80601f0160208091040260200160405190810160405280929190818152602001828054610e3190612aab565b8015610e7e5780601f10610e5357610100808354040283529160200191610e7e565b820191906000526020600020905b815481529060010190602001808311610e6157829003601f168201915b50505050508152602001600682018054610e9790612aab565b80601f0160208091040260200160405190810160405280929190818152602001828054610ec390612aab565b8015610f105780601f10610ee557610100808354040283529160200191610f10565b820191906000526020600020905b815481529060010190602001808311610ef357829003601f168201915b50505050508152602001600782018054610f2990612aab565b80601f0160208091040260200160405190810160405280929190818152602001828054610f5590612aab565b8015610fa25780601f10610f7757610100808354040283529160200191610fa2565b820191906000526020600020905b815481529060010190602001808311610f8557829003601f168201915b505050505081526020016008820180548060200260200160405190810160405280929190818152602001828054801561100457602002820191906000526020600020905b81546001600160a01b03168152600190910190602001808311610fe6575b5050505050815260200160098201805480602002602001604051908101604052809291908181526020016000905b828210156110de57838290600052602060002001805461105190612aab565b80601f016020809104026020016040519081016040528092919081815260200182805461107d90612aab565b80156110ca5780601f1061109f576101008083540402835291602001916110ca565b820191906000526020600020905b8154815290600101906020018083116110ad57829003601f168201915b505050505081526020019060010190611032565b50505050815250509050806000015181602001518260400151836060015184608001518560a001518660c001518760e001518861010001518961012001519a509a509a509a509a509a509a509a509a509a50509193959799509193959799565b600086815260026020526040812060018101546060918291829182918291906001600160a01b038f81169116146111bc5760405162461bcd60e51b815260206004820152601460248201527f596f7520617265206e6f7420616e206f776e657200000000000000000000000060448201526064015b60405180910390fd5b8b516111d190600383019060208f0190612153565b508a516111e790600483019060208e0190612153565b5089516111fd90600583019060208d0190612153565b50885161121390600683019060208c0190612153565b50875161122990600783019060208b0190612153565b509b9d9a9c50959a5096989596505050505050565b6003546060906000808267ffffffffffffffff811115611260576112606126b3565b6040519080825280602002602001820160405280156112f057816020015b6112dd6040518061014001604052806000815260200160006001600160a01b0316815260200160008152602001606081526020016060815260200160608152602001606081526020016060815260200160608152602001606081525090565b81526020019060019003908161127e5790505b50905060005b83811015610c5557600061130b826001612a78565b6000818152600260208181526040928390208351610140810185528154815260018201546001600160a01b031692810192909252918201549281019290925260038101805493945090928391606084019161136590612aab565b80601f016020809104026020016040519081016040528092919081815260200182805461139190612aab565b80156113de5780601f106113b3576101008083540402835291602001916113de565b820191906000526020600020905b8154815290600101906020018083116113c157829003601f168201915b505050505081526020016004820180546113f790612aab565b80601f016020809104026020016040519081016040528092919081815260200182805461142390612aab565b80156114705780601f1061144557610100808354040283529160200191611470565b820191906000526020600020905b81548152906001019060200180831161145357829003601f168201915b5050505050815260200160058201805461148990612aab565b80601f01602080910402602001604051908101604052809291908181526020018280546114b590612aab565b80156115025780601f106114d757610100808354040283529160200191611502565b820191906000526020600020905b8154815290600101906020018083116114e557829003601f168201915b5050505050815260200160068201805461151b90612aab565b80601f016020809104026020016040519081016040528092919081815260200182805461154790612aab565b80156115945780601f1061156957610100808354040283529160200191611594565b820191906000526020600020905b81548152906001019060200180831161157757829003601f168201915b505050505081526020016007820180546115ad90612aab565b80601f01602080910402602001604051908101604052809291908181526020018280546115d990612aab565b80156116265780601f106115fb57610100808354040283529160200191611626565b820191906000526020600020905b81548152906001019060200180831161160957829003601f168201915b505050505081526020016008820180548060200260200160405190810160405280929190818152602001828054801561168857602002820191906000526020600020905b81546001600160a01b0316815260019091019060200180831161166a575b5050505050815260200160098201805480602002602001604051908101604052809291908181526020016000905b828210156117625783829060005260206000200180546116d590612aab565b80601f016020809104026020016040519081016040528092919081815260200182805461170190612aab565b801561174e5780601f106117235761010080835404028352916020019161174e565b820191906000526020600020905b81548152906001019060200180831161173157829003601f168201915b5050505050815260200190600101906116b6565b505050508152505084868151811061177c5761177c612ae6565b6020908102919091010152611792600186612a78565b9450505080806117a190612a90565b9150506112f6565b606060046000838152602001908152602001600020805480602002602001604051908101604052809291908181526020016000905b828210156118e45760008481526020908190206040805160c0810182526006860290920180546001600160a01b03168352600181015493830193909352600283015460ff169082015260038201805491929160608401919061183f90612aab565b80601f016020809104026020016040519081016040528092919081815260200182805461186b90612aab565b80156118b85780601f1061188d576101008083540402835291602001916118b8565b820191906000526020600020905b81548152906001019060200180831161189b57829003601f168201915b5050505050815260200160048201548152602001600582015481525050815260200190600101906117de565b505050509050919050565b600060608060608060008b116119475760405162461bcd60e51b815260206004820152601d60248201527f5072696365206d7573742062652067726561746572207468616e20302e00000060448201526064016111b3565b6003805490600061195783612a90565b91905055506000600354905060006002600083815260200190815260200160002090508181600001819055508d8160010160006101000a8154816001600160a01b0302191690836001600160a01b031602179055508c81600201819055508b8160030190805190602001906119cd929190612153565b508a516119e390600483019060208e0190612153565b5089516119f990600583019060208d0190612153565b508851611a0f90600683019060208c0190612153565b508751611a2590600783019060208b0190612153565b508d6001600160a01b0316827f23fb658c1698b92f5fe511a079c17ecf7965cbc3f1b873328c67e2c3c0820f1f8f604051611a6291815260200190565b60405180910390a3509c999b50949950959795505050505050565b6000546001600160a01b03163314611afd5760405162461bcd60e51b815260206004820152603760248201527f6f6e6c79206f776e6572206f662074686520636f6e74726163742063616e206360448201527f68616e676520746865206c697374696e6720707269636500000000000000000060648201526084016111b3565b6000546001600160a01b03828116911614611b805760405162461bcd60e51b815260206004820152602d60248201527f4f6e6c7920636f6e7472616374206f776e65722063616e20757064617465206c60448201527f697374696e672070726963652e0000000000000000000000000000000000000060648201526084016111b3565b50600155565b6000828152600260208190526040909120015434908114611be95760405162461bcd60e51b815260206004820152601360248201527f496e73756666696369656e742066756e64732e0000000000000000000000000060448201526064016111b3565b600083815260026020526040808220600181015491519092916001600160a01b03169084908381818185875af1925050503d8060008114611c46576040519150601f19603f3d011682016040523d82523d6000602084013e611c4b565b606091505b505090508015611cba5760018201805473ffffffffffffffffffffffffffffffffffffffff19166001600160a01b038616908117909155604051848152819087907fddd64180d9701c7ede08673ac8106484ff983a472929330d4fbde4e35d65cb069060200160405180910390a45b5050505050565b60008080805b600754811015611d41576000611cde826001612a78565b60008181526006602052604090206002015490915015611d2e5760008181526006602052604081206002810154600190910154611d1b9190612afc565b905084811115611d2c578094508193505b505b5080611d3981612a90565b915050611cc7565b5092915050565b6000838152600460205260408120805484908110611d6857611d68612ae6565b90600052602060002090600602019050806004016000815480929190611d8d90612a90565b9190505550816001600160a01b031683857fc58deae63c2d94e1502a392380f59901dc4cd3c3bbc40308b6189decf09671d58460040154604051611dd391815260200190565b60405180910390a450505050565b60018460ff1610158015611df9575060058460ff1611155b611e455760405162461bcd60e51b815260206004820152601f60248201527f526174696e67206d757374206265206265747765656e203120616e6420352e0060448201526064016111b3565b600085815260026020908152604082206008810180546001808201835591855283852001805473ffffffffffffffffffffffffffffffffffffffff19166001600160a01b0387161790556009820180549182018155845291909220611eac910185856121d7565b50600460008781526020019081526020016000206040518060c00160405280846001600160a01b031681526020018881526020018760ff16815260200186868080601f01602080910402602001604051908101604052809392919081815260200183838082843760009201829052509385525050506020808301829052600754604093840152845460018082018755958352918190208451600690930201805473ffffffffffffffffffffffffffffffffffffffff19166001600160a01b0390931692909217825583810151948201949094559082015160028201805460ff191660ff9092169190911790556060820151805192939192611fb39260038501920190612153565b506080820151600482015560a0909101516005918201556001600160a01b038316600090815260209182526040808220805460018181018355918452848420018a905589835260069093528120909101805460ff88169290612016908490612a78565b9091555050600086815260066020526040812060020180549161203883612a90565b9190505550816001600160a01b0316867f4a7905ef60a1bc6706f11a56f05a4ebb480a37effdcaaba357946727b7aa074387878760405161207b93929190612b1e565b60405180910390a36007805490600061209383612a90565b9190505550505050505050565b60008281526002602052604090206001810154606091906001600160a01b038681169116146121115760405162461bcd60e51b815260206004820152601460248201527f596f7520617265206e6f7420616e206f776e657200000000000000000000000060448201526064016111b3565b6002018290555060408051808201909152601e81527f596f75722050726f70657274792050726963652049732055706461746564000060208201529392505050565b82805461215f90612aab565b90600052602060002090601f01602090048101928261218157600085556121c7565b82601f1061219a57805160ff19168380011785556121c7565b828001600101855582156121c7579182015b828111156121c75782518255916020019190600101906121ac565b506121d392915061224b565b5090565b8280546121e390612aab565b90600052602060002090601f01602090048101928261220557600085556121c7565b82601f1061221e5782800160ff198235161785556121c7565b828001600101855582156121c7579182015b828111156121c7578235825591602001919060010190612230565b5b808211156121d3576000815560010161224c565b80356001600160a01b038116811461227757600080fd5b919050565b60006020828403121561228e57600080fd5b61229782612260565b9392505050565b6000815180845260005b818110156122c4576020818501810151868301820152016122a8565b818111156122d6576000602083870101525b50601f01601f19169290920160200192915050565b600081518084526020808501945080840160005b838110156123245781516001600160a01b0316875295820195908201906001016122ff565b509495945050505050565b600082825180855260208086019550808260051b84010181860160005b8481101561237a57601f1986840301895261236883835161229e565b9884019892509083019060010161234c565b5090979650505050505050565b60006020808301818452808551808352604092508286019150828160051b87010184880160005b838110156124b657888303603f19018552815180518452878101516001600160a01b038116898601526101409050878201518886015260608083015182828801526123fb8388018261229e565b9250505060808083015186830382880152612416838261229e565b9250505060a08083015186830382880152612431838261229e565b9250505060c0808301518683038288015261244c838261229e565b9250505060e08083015186830382880152612467838261229e565b92505050610100808301518683038288015261248383826122eb565b9250505061012080830151925085820381870152506124a2818361232f565b9689019694505050908601906001016123ae565b509098975050505050505050565b60006020808301818452808551808352604092508286019150828160051b87010184880160005b838110156124b657603f19898403018552815160c06001600160a01b038251168552888201518986015260ff88830151168886015260608083015182828801526125378388018261229e565b6080858101519089015260a094850151949097019390935250505093860193908601906001016124eb565b60006020828403121561257457600080fd5b5035919050565b600081518084526020808501808196508360051b8101915082860160005b858110156125c35782840389526125b184835161229e565b98850198935090840190600101612599565b5091979650505050505050565b60006101408c835260206001600160a01b03808e16828601528c60408601528260608601526126018386018d61229e565b92508483036080860152612615838c61229e565b925084830360a0860152612629838b61229e565b925084830360c086015261263d838a61229e565b925084830360e0860152612651838961229e565b858103610100870152875180825283890194509083019060005b8181101561268957855184168352948401949184019160010161266b565b505085810361012087015261269e818861257b565b9450505050509b9a5050505050505050505050565b634e487b7160e01b600052604160045260246000fd5b600082601f8301126126da57600080fd5b813567ffffffffffffffff808211156126f5576126f56126b3565b604051601f8301601f19908116603f0116810190828211818310171561271d5761271d6126b3565b8160405283815286602085880101111561273657600080fd5b836020870160208301376000602085830101528094505050505092915050565b600080600080600080600060e0888a03121561277157600080fd5b61277a88612260565b965060208801359550604088013567ffffffffffffffff8082111561279e57600080fd5b6127aa8b838c016126c9565b965060608a01359150808211156127c057600080fd5b6127cc8b838c016126c9565b955060808a01359150808211156127e257600080fd5b6127ee8b838c016126c9565b945060a08a013591508082111561280457600080fd5b6128108b838c016126c9565b935060c08a013591508082111561282657600080fd5b506128338a828b016126c9565b91505092959891949750929550565b86815260c06020820152600061285b60c083018861229e565b828103604084015261286d818861229e565b90508281036060840152612881818761229e565b90508281036080840152612895818661229e565b905082810360a08401526128a9818561229e565b9998505050505050505050565b85815260a0602082015260006128cf60a083018761229e565b82810360408401526128e1818761229e565b905082810360608401526128f5818661229e565b90508281036080840152612909818561229e565b98975050505050505050565b6000806040838503121561292857600080fd5b8235915061293860208401612260565b90509250929050565b60008060006060848603121561295657600080fd5b833592506020840135915061296d60408501612260565b90509250925092565b60008060008060006080868803121561298e57600080fd5b85359450602086013560ff811681146129a657600080fd5b9350604086013567ffffffffffffffff808211156129c357600080fd5b818801915088601f8301126129d757600080fd5b8135818111156129e657600080fd5b8960208285010111156129f857600080fd5b602083019550809450505050612a1060608701612260565b90509295509295909350565b600080600060608486031215612a3157600080fd5b612a3a84612260565b95602085013595506040909401359392505050565b602081526000612297602083018461229e565b634e487b7160e01b600052601160045260246000fd5b60008219821115612a8b57612a8b612a62565b500190565b6000600019821415612aa457612aa4612a62565b5060010190565b600181811c90821680612abf57607f821691505b60208210811415612ae057634e487b7160e01b600052602260045260246000fd5b50919050565b634e487b7160e01b600052603260045260246000fd5b600082612b1957634e487b7160e01b600052601260045260246000fd5b500490565b60ff8416815260406020820152816040820152818360608301376000818301606090810191909152601f909201601f191601019291505056fea2646970667358221220795d7bfab70e5c16704f27d224dec632a3fa632c761c1d11cce7bd522cf1f85564736f6c63430008090033",
  "linkReferences": {},
  "deployedLinkReferences": {}
}